:100000000C94C9020C94E6020C94E6020C94E602ED
:100010000C94E6020C94E6020C94E6020C94E602C0
:100020000C94E6020C94E6020C94B6100C94721038
:100030000C94441F0C94E6020C94E6020C94E60225
:100040000C94E6020C94E6020C94E6020C94E60290
:100050000C94E6020C94B20C0C94E6020C94E602AA
:100060000C94E6020C94E6020C94E6020C94E60270
:100070000C94E6020C94E6020C94E6020C94E60260
:100080000C94E6020C94E6020C94E6020C94E60250
:100090000C94E6020C94E6020C94E6020C94E60240
:1000A0000C94E6020C94E6020C94E60264002B0029
:1000B0002961E100350000003A00140004001D0031
:1000C000E00029643B001A0016001B000100280014
:1000D0003C00080007000600E3002C003D0015006E
:1000E00009001900015101003E0017000A00050037
:1000F00000004C004C00035800002A0000000100E2
:100100004C00035800002A00000001003F001C00C2
:100110000B00110000004C00400018000D00100002
:100120000251010041000C000E003600E6002C00D8
:10013000420012000F0037000100280043001300A6
:1001400033003800010029683C082F0034002B00E0
:100150002F06000064002B002961E100350000003B
:1001600044001E0014140100E000296445001F0033
:100170001A14010001002800680020002D00010071
:10018000E3002C00690021002E00010001000100A5
:100190006A0022006400010000004C000100010020
:1001A00000002A00000001000100010000002A00F8
:1001B000000001006B0023005000010000004C0013
:1001C0006C00240051000100010001006D002500B9
:1001D00052003600E6002C006E0026004F0037006B
:1001E000010028006F00270034143800010029683E
:1001F0000100300031002B002F06000064022B00AC
:100200002961E1003502000044001E0214140100BF
:10021000E000296445001F021A14010001002800B3
:10022000680020022D020100E3002C006900210279
:100230002E020100010001006A0022026402010096
:1002400000004C040100010000002A04000001002D
:100250000100010000002A04000001006B002302DD
:100260005004010000004C046C0024025104010001
:10027000010001006D00250252043602E6002C0048
:100280006E0026024F043702010028006F0027028B
:1002900034163802010029680100300231022B00B7
:1002A0002F06000001000100FF00FE00FD0000001D
:1002B00001000100F2000100010001000100F00056
:1002C000F10001000100F50001000100F300010050
:1002D0000100F400010001000100010004510100CF
:1002E00001000100010001000000F6000100010012
:1002F00000000100000001000100010000000100F9
:100300000000010001004A00500001000000F6005A
:1003100001004E00510001000100010001004B00EE
:10032000520001000100F40001004D004F000100E7
:100330000100F500010001000100010001000100C1
:1003400001000100010001000100000001000100A6
:10035000FF00FE00FD00000001000100FC000100A4
:10036000010001000100FA00F90001000100F500A0
:1003700001000100FB0001000100F4000100010088
:100380000100010001000100010001000100010065
:100390000000F60001000100000001000000010063
:1003A0000100010000000100000001000100010047
:1003B000010001000000F600010001000100010041
:1003C0000100010001000100010001000100F40032
:1003D00001000100010001000100F5000100010021
:1003E0000100010001000100010001000100010005
:1003F0000100000005010902A10185020901A10017
:1004000005091901290515002501950575018102C8
:100410009501750381010501093009311581257F99
:1004200095027508810609381581257F95017508A3
:100430008106050C0A38021581257F950175088112
:1004400006C0C005010980A101850319012AB70072
:10045000150126B700950175108100C0050C090132
:10046000A101850419012AA002150126A002950107
:1004700075108100C005010906A101850505071950
:10048000E029E71500250195087501810205071986
:100490000029EF1500250195F07501810205081965
:1004A000012905950575019102950175039101C01A
:1004B00005010906A101050719E029E71500250135
:1004C00095087501810295017508810105071900DC
:1004D00029FF150026FF00950675088100050819FB
:1004E000012905950575019102950175039101C0DA
:1004F00009023B00020100A0FA0904000001030107
:1005000001000921110100012240000705810308B3
:10051000000A090401000103000000092111010083
:100520000122BC000705820320000A12011001000D
:1005300000000897327449010001020301040330EE
:1005400000000016034500720067006F0044006F52
:10055000007800200045005A00000030035A005384
:10056000004100200054006500630068006E006FC9
:10057000006C006F006700790020004C0061006291
:10058000007300200049006E0063000000040309AE
:10059000040011241FBECFEFDAE0DEBFCDBF11E0B3
:1005A000A0E0B1E0E2EFF3E402C005900D92AC3EB2
:1005B000B107D9F723E0ACEEB1E001C01D92A8323B
:1005C000B207E1F70E94B11C0C94C5210C94000005
:1005D000E8EDF0E080818E7F80831092E20010923F
:1005E000DA001092E100A0EEB0E08C9181608C9373
:1005F00080818F77808319BCA7EDB0E08C918E7FCE
:100600008C9380818F7E80831092F50208952091D3
:10061000E4003091E50095E6A9012091EC00822FDD
:10062000817020FF06C08091E80080FF06C080E056
:1006300008952091E80022FD1AC080911A038823B2
:1006400089F0853089F08091EB0085FD0FC0209105
:10065000E4003091E50042175307F9F29150E1F6BA
:1006600084E0089582E0089583E0089581E008958C
:10067000EF92FF920F931F93CF937C018B010E9407
:100680000703C82F811117C08091E80085FD0BC0BA
:100690008091E8008E778093E8000E94070388230A
:1006A00099F3C82F08C0F70181917F018093F10071
:1006B0000150110949F78C2FCF911F910F91FF9095
:1006C000EF90089580911C0387FF13C08091E8008C
:1006D00082FF06C08091E8008B778093E80004C019
:1006E00080911A038111F2CF089580911A03882313
:1006F000D9F38091E80080FFF8CF8091E8008E77F1
:10070000ECCF982F9093E900242F762F50E0891793
:1007100031F07091EC002091ED005091F00021FD3E
:1007200007C09F5F973071F78093E90081E00895DB
:100730003091EB003E7F3093EB003091ED003D7F38
:100740003093ED003091EB0031603093EB0070930B
:10075000EC002093ED005093F0002091EE0027FD77
:10076000E0CF80E00895CF92DF92EF92FF920F9357
:100770001F93CF93DF93C8EDD0E088818F7E88836D
:10078000E7EDF0E080818160808384E082BF81E0DA
:100790008093F50288818E7F888302EE10E0F80155
:1007A00010821092DA0081EEC82ED12CF601108250
:1007B00088818F77888388818068888388818F7D0E
:1007C000888319BC10921A0310921B03109219030C
:1007D0001092180390EEE92EF12CF70180818B7FA7
:1007E000808388818160888342E060E080E00E94AD
:1007F0008103F60180818E7F8083F8018081816092
:100800008083808188608083F70180818E7F8083F0
:10081000888180618883DF91CF911F910F91FF9034
:10082000EF90DF90CF900895FC018091220390918A
:10083000230386179707A0F06115710529F490919D
:10084000E8009E779093E80090E06115710551F4FF
:10085000911108C08091E80082FF34C080E00895C3
:10086000BC01F2CF80911A038823C1F18530C1F118
:100870008091E80083FD30C08091E80082FDEACFDE
:100880008091E80080FFE1CF8091F3002091F20099
:10089000382F6115710519F02830310558F091E0B5
:1008A0002830310509F090E02091E8002E77209360
:1008B000E800CBCF81918093F100615071092F5FE7
:1008C0003F4FE7CF80911A03882341F0853041F0F4
:1008D0008091E80083FFBECF81E0089582E0089513
:1008E00083E008958091F70208959091E102803F9E
:1008F00059F48091E20287FF0DC01092E20291113B
:100900000BC01092DC0208C0813F81F48091E202AA
:1009100018169CF3992381F08091E3029091E402F0
:10092000892B09F064C01092D9020895823F49F4DE
:1009300097FFF0CF1092E1028091E2028111ECCF9B
:10094000E0CF833F19F41916ACF3E4CF2091E30212
:10095000893F29F41216F4F61092E302DBCF8A3FA6
:1009600019F427FFD7CFF8CF2091E4028B3F29F469
:1009700027FFD0CF1092E402CDCF8C3F19F412168E
:10098000CCF3C8CF843F31F48091E0028E7F809316
:10099000E002C0CF853F21F48091E0028D7FF7CF48
:1009A000863F21F48091E0028B7FF1CF873F21F4D5
:1009B0008091E002877FEBCF883F21F48091E002B5
:1009C0008F7EE5CF8D3F31F48091A9028E7F809399
:1009D000A902A0CF8E3F21F48091A9028D7FF7CF8D
:1009E0008F3F09F097CF8091A9028B7FF0CF0895B8
:1009F0009091A902892F817090FD19C091FD16C0B8
:100A000092FD12C08091D902882381F08C3360F46A
:100A100023E0829FC00111246CE370E00E94382023
:100A2000862F672B19F0089583E0089581E00895DB
:100A30008091A90280FD18C081FD14C082FD16C0FE
:100A40008091DC02882381F08C3380F424E1829F42
:100A5000C00111246CE370E00E943820862F672BC0
:100A600039F008958AE0089585E0089584E10895B5
:100A700081E00895803F31F40E94180581958093AC
:100A8000E2020895813F19F40E941805F8CF823FD1
:100A900031F40E94180581958093E1020895833F07
:100AA00019F40E941805F8CF893F29F40E94F80430
:100AB0008093E30208958A3F21F40E94F80481950F
:100AC000F7CF8B3F31F40E94F80481958093E402C4
:100AD00008958C3F19F40E94F804F8CF843F31F454
:100AE0008091E00281608093E0020895853F21F4C7
:100AF0008091E0028260F7CF863F21F48091E0028E
:100B00008460F1CF873F21F48091E0028860EBCFD1
:100B1000883F21F48091E0028061E5CF8D3F31F480
:100B20008091A90281608093A90208958E3F21F4EB
:100B30008091A9028260F7CF8F3FB9F78091A90217
:100B40008460F1CF9C014FB7F8948091A5029091F9
:100B5000A602A091A702B091A8024FBF821B930BDF
:100B60000895209112012223C9F02091C60227FF87
:100B700015C0E62FE695E695E695EE31D8F4E80F38
:100B8000F92FF11D677021E030E001C0220F6A9556
:100B9000EAF720958281282322830895FC0132966A
:100BA00008962191621303C0DF0111971C92E81788
:100BB000F907B9F70895209112012223C1F020917D
:100BC000C60227FF14C0E62FE695E695E695EE31BE
:100BD000F8F4E80FF92FF11D677021E030E001C053
:100BE000220F6A95EAF78281822B82830895FC01A5
:100BF00032962FEF30E04191641751F02F3F19F4F6
:100C0000411101C0232F3F5F3630A9F72F3F09F470
:100C10000895820F911D27FD9A95FC016283089526
:100C20008091A00281111092A002089580919F02EC
:100C300090919E02892B90919D02892B8093EC01CB
:100C40009091A0029923A1F0892B8093EC018091CF
:100C50001201882341F18091C60287FF24C08EE1F2
:100C6000EEEEF1E090E0815000F591110E94100647
:100C7000E091C802F091C9023097E1F08091120131
:100C8000882359F08091C60287FF07C08091EC014C
:100C90008093ED0185E08093EC010280F381E02DEB
:100CA0008CEE91E0099486E0DBCF21912223D9F2EA
:100CB0009F5FD9CF0895E92FEE0FE90FEE0F8E0F4A
:100CC000982F977086958695869525E0829FF001EE
:100CD0001124EB59FD4F50E040E080E0219130E0DD
:100CE000092E02C0369527950A94E2F72170332722
:100CF000042E01C0220F0A94EAF7822B4F5F5F4F48
:100D00004530510559F70895E92FEE0FE90FEE0F21
:100D10008E0F982F977041E001C0440F9A95EAF723
:100D200086958695869595E0899FF0011124EB596B
:100D3000FD4F30E020E070E05191DF011197CB01D1
:100D4000022E02C0969587950A94E2F781708195EC
:100D50008527842385278C932F5F3F4F25303105CE
:100D600059F708958091640290913302981301C05D
:100D700008958F5F8770FACF882341F08095909116
:100D80009E02892380939E020C9416060895882360
:100D900039F090919E02982B90939E020C94160627
:100DA0000895882341F0809590919F028923809334
:100DB0009F020C9416060895882339F090919F02A3
:100DC000982B90939F020C94160608952091170279
:100DD000309118022817390771F090931802809308
:100DE0001702E091C802F091C902309721F0008407
:100DF000F185E02D09940895209115023091160295
:100E00002817390771F09093160280931502E0912C
:100E1000C802F091C902309721F00680F781E02DD9
:100E200009940895E091C802F091C902309721F029
:100E30000190F081E02D099480E008959091C60220
:100E400092FF06C0282F28712830F9F4877F84602C
:100E500093FF06C0282F28712831F1F4877E846122
:100E60002091C70220FF06C0382F38713830D9F4DE
:100E7000877F816021FF06C0282F28712831D1F497
:100E8000877E816194FD877E0895282F2471243008
:100E9000F9F68B7F8860DCCF282F2471243101F78D
:100EA0008B7E8861DDCF382F3171313019F78E7F1D
:100EB0008860E0CF282F2171213121F78E7E886153
:100EC000E1CFCF93DF93972F70E026E0929F600DE4
:100ED000711D1124FB0134E5839FE00DF11D1124E8
:100EE000EE0FFF1FE455FF4FC591D491CE01C238DC
:100EF000D105B9F1E8F5C133D10509F499C050F530
:100F0000C932D10509F48DC0CA32D10509F497C0A0
:100F1000C11542E5D40708F0C4C0C11521E5D207C8
:100F200008F038C1C83ED10508F09DC0C03ED105CB
:100F300068F5C83AD10508F089C0C53AD10508F06E
:100F400005C1C130D10511F1209709F443C02497A0
:100F5000E8F440C0C533D10509F45CC0C933D105FC
:100F6000B9F62091C602237089F080EE90E00EC0A1
:100F7000C33ED10591F168F4C03ED105F9F0C23EFF
:100F8000D10531F62091C60222FD20C0DF91CF911C
:100F90000895C63ED10561F1C73ED10581F1C43E39
:100FA000D10509F0B5CF2091C70221FFEFCF809185
:100FB000C60284FD0FC087EE90E0E8CF2091C60204
:100FC00020FD19C13091C70230FFE0CF83EE90E0E1
:100FD00024FFDCCF90E080E0D9CF2091C60222FD33
:100FE0000DC13091C70230FDC0CF24FFCFCFF2CF6B
:100FF0002091C60223FFCACF24FDECCFDCCF209185
:10100000C60223FDFEC03091C70231FFEECF84EE51
:1010100090E0BCCF2091C60225FFB8CF89E290E0D6
:10102000B5CF2091C60225FFB1CF85E390E0AECFCA
:101030002091C60226FFAACF8AE290E0A7CF209196
:10104000C60226FFA3CF81E390E0A0CFCF3BD1051E
:1010500008F6C85AD0E0CC0FDD1FC254DE4F88819D
:101060009981946493CFC11530E2D30760F4C11520
:1010700041E0D40708F08ACFCE019065C03FD1058A
:1010800008F084CFA7CFC11580E4D80708F4A2CF19
:10109000C11590E5D90708F061C0CE019F70906A34
:1010A00075CFC11526E5D20718F5C11535E5D3076B
:1010B00008F086C0C11544E5D40708F07CC09C2F19
:1010C00096959695AE0143705527C115D34508F402
:1010D00066C021E030E002C0220F331F4A95E2F7DC
:1010E00040E2949FC0011124822B932B9A684ECF2B
:1010F000C1159AE5D90778F4C11529E5D20708F09A
:1011000069C0C11538E5D30708F464CF9C2F882740
:10111000806F906A3BCFC1154BE5D40708F45ACFD6
:10112000C1158CE5D80708F462C0CE019056811530
:10113000904208F04FCF8D2F8F710E941E0790E0D4
:10114000982F882788279F718C2B42C0C55AD0E0E2
:10115000C554DE4F888190E0906418CF9E01E4E092
:1011600036952795EA95E1F723708C2F869586951D
:10117000837030E2839FC0011124922BC37021E061
:1011800030E002C0220F331FCA95E2F7822B932B67
:101190009C68FCCE9C2F8827816F906AF7CE21E057
:1011A00030E002C0220F331F4A95E2F740E2949FDD
:1011B000C0011124EBCF9C2F8827846F906AE6CE64
:1011C0008C2F0E941E0790E0982F882788279F71F8
:1011D0009062DCCE8C2F8F700E941E0734E0D69573
:1011E000C7953A95E1F7CF709C2F9069CFCECE018D
:1011F00099279066CBCE89E390E0C8CE82EE90E04E
:10120000C5CE86EE90E0C2CEBF92CF92DF92EF9233
:10121000FF920F931F93CF93DF938C01C090C20274
:10122000D090C302E090C402F090C5028091A10268
:101230009091A202A091A302B091A402C82AD92A37
:10124000EA2AFB2ACFE1D0E0BC2ED701C6010C2E42
:1012500004C0B695A795979587950A94D2F780FD17
:101260000EC0219788F7B12C8B2DDF91CF911F9164
:101270000F91FF90EF90DF90CF90BF900895B8014D
:101280008C2F0E946107019761F3EECFCF93DF931C
:10129000EC010E940409BE01DF91CF910C9461071B
:1012A0000E944609292F2F7092959F7092509E3070
:1012B00078F4E92FF0E0E953FE4D0C944C20803F88
:1012C00019F020F4883E20F481E00895843FE1F392
:1012D00080E00895883EC0F3813FD1F7F5CF822F9B
:1012E000869586958695089527982F98089526982F
:1012F0002E98089525982D98089556985E980895EB
:10130000279A2F9A0895269A2E9A0895259A2D9A0B
:101310000895CF92DF92EF92FF92CF936B017C0101
:10132000C701AA27BB27C0E10097A105B10519F4A1
:10133000D701CB01C0E0492F5A2F6B2F77274115DA
:1013400051056105710519F0C85FDB01CA01AC01E7
:10135000BD01E4E07695679557954795EA95D1F7F5
:10136000411551056105710519F0CC5FDB01CA011A
:10137000AC01BD0132E076956795579547953A9552
:10138000D1F7411551056105710519F0CE5FDB01FB
:10139000CA01B695A79597958795892B8A2B8B2B94
:1013A00009F0CF5F0E947D090E947A090E947709A7
:1013B0000E947409C150C73040F4EC2FF0E0EB52AA
:1013C000FE4D0C944C200E948609C701B601CF91B6
:1013D000FF90EF90DF90CF9008950E9486090E94C1
:1013E0008309F3CF0E9486090E948009EECF0E94F4
:1013F00086090E948309F8CF209828982198299877
:1014000022982A9823982B9852985A9853985B9828
:101410003E98469808958098889A8198899A8498E9
:101420008C9A85988D9A86988E9A87988F9A089527
:10143000CF9384E090E00E945220C82F81E290E098
:101440000E945220982F8C2FCF910895CF93DF9335
:1014500000D00F92CDB7DEB790911A03943019F5F2
:1014600089837B836A8382E08093E9008FEF909188
:10147000E800815095FD06C095ED9A95F1F70000C2
:101480008111F5CF8091E80085FF0DC050E040E06C
:1014900063E070E0CE0101960E9438038091E8007D
:1014A0008E778093E8000F900F900F90DF91CF918F
:1014B0000895BC0184E00C94260ABC0183E00C94DE
:1014C000260A9C0182E08093E9009FEF8091E8006A
:1014D000915085FD06C085ED8A95F1F700009111C8
:1014E000F5CF8091E80085FF0CC050E040E066E059
:1014F00070E0C9010E9438038091E8008E778093E4
:10150000E8000895CF93DF93EC01809112018823C6
:10151000B1F18091C60287FF32C060E282E0809321
:10152000E9008FEF9091E800815095FD06C095EDA0
:101530009A95F1F700008111F5CF8091E80085FFC1
:101540001BC08091120170E050E040E0811104C0A6
:1015500050E040E068E070E0CE010E9438038091E6
:10156000E8008E778093E80080E2FE01A8EFB2E009
:1015700001900D928A95E1F7DF91CF91089568E08F
:1015800081E0CDCFEF92FF920F931F93CF93DF9324
:101590000E947D090E947A090E9477090E947409BD
:1015A00088E8E82EF12C8FEF90E0F701918380839B
:1015B0000AE810E0F80191838083CCE8D0E09983B9
:1015C00088830E948609FFEF20E782E0F1502040E7
:1015D0008040E1F700C000000E9483099FEFE0E730
:1015E000F2E09150E040F040E1F700C000000E94BE
:1015F00080092FEF80E792E0215080409040E1F792
:1016000000C000000E947A09EFEFF0E722E0E1500D
:10161000F0402040E1F700C000000E9477098FEF02
:1016200090E7E2E081509040E040E1F700C0000028
:101630000E9474098091B0028770FFEF8F9FC001F4
:10164000112495958795959587959927F70191830D
:101650008083F80191838083998388830E947D0928
:101660000E947A090E947709DF91CF911F910F9113
:10167000FF90EF900C9474096FEE7EEF90E080E0A5
:101680000E94842060E082E090E00E94662060E09A
:1016900083E090E00E9466201092A1021092A202C4
:1016A0001092A3021092A40260E084E090E00E94F5
:1016B000662060E081E290E00E94662060E085E0C4
:1016C00090E00E94662060E086E090E00E94662044
:1016D0006FEF87E090E00E94662040E050E0BA01A2
:1016E00088E090E00E94782060E08DE090E00E9429
:1016F000662040E050E0BA0188E190E00E94782046
:1017000060E087E190E00E94662040E050E0BA018E
:101710008CE190E00E94782060E080E290E00E94FE
:1017200066201092B0021092B1021092B202109292
:10173000B30284E080618093B0024091B002509186
:10174000B1026091B2027091B3028FE090E00E940A
:10175000782040E050E0BA0183E190E00C947820DA
:10176000CF93C82F873070F58091060190910701C3
:10177000892B89F564E670E080E40E94711F9093E4
:10178000070180930601892BD1F464E670E082E1C1
:101790000E94CD1F9093070180930601892B79F455
:1017A00081E090E001C0880FCA95EAF764E670E036
:1017B00080950E94CD1F9093070180930601CF91E1
:1017C0000C9420208A30B9F040F4883071F08930D0
:1017D00079F0209A2898CF9108958C3091F070F08C
:1017E0008D30B9F73E9A4698F6CF219A2998F3CFD3
:1017F000229A2A98F0CF239A2B98EDCF529A5A9892
:10180000EACF539A5B98E7CF80E290E0909307018C
:101810008093060180910C0281110EC00E946B1F03
:1018200081E080930C022FEF83ED90E32150804004
:101830009040E1F700C0000064E670E080E40E94A0
:10184000711F9093070180930601892B09F04EC008
:1018500064E670E080E00E94CD1F909307018093C2
:101860000601892B09F042C064E670E080E00E9426
:10187000CD1F9093070180930601892BB9F564E68B
:1018800070E08FE30E94CD1F9093070180930601C3
:10189000892B61F50E94202064E670E080E40E94BC
:1018A000711F9093070180930601892BF9F464E678
:1018B00070E08CE00E94CD1F909307018093060199
:1018C000892BA1F464E670E080E00E94CD1F909324
:1018D000070180930601892B49F464E670E08FE3E9
:1018E0000E94CD1F90930701809306010E94202043
:1018F000809106010895CF93873050F580910601BD
:1019000090910701C0E0892B71F464E670E081E4F6
:101910000E94711F9093070180930601892B31F07B
:10192000C0E00E9420208C2FCF91089584E690E0A3
:101930000E94FC1F97FF05C090930701809306014A
:10194000EFCFC82FC0951092070110920601E9CF82
:10195000CFB18FB1869586958C73C3708C2BC82FB1
:10196000C095E1CF78941F921FB61F9211248F93D8
:101970009F93AF93BF938091A5029091A602A091EF
:10198000A702B091A8020196A11DB11D8093A502E6
:101990009093A602A093A702B093A802BF91AF9123
:1019A0009F918F911F901FBE1F9018952FB7F8948D
:1019B0008091A5029091A602A091A702B091A802E1
:1019C0002FBF08950E94D60C9C019091E102809156
:1019D000E202982B21F03093DE022093DD029091F9
:1019E000E3028091E402982B21F03093DB022093F4
:1019F000DA02E091C802F091C902309749F082E022
:101A00008093DF020480F581E02D8FED92E0099450
:101A1000089510929E0210929D020E94160686E082
:101A2000EFEDF2E0DF011D928A95E9F71092DC02FA
:101A30001092D9021092A9020E94E20C90E080E07C
:101A40000E94FC0690E080E00C94E6060E94890962
:101A50006093C2027093C3028093C4029093C50244
:101A60000C94090D0F931F9341E050E060E070E08B
:101A700004C0440F551F661F771F8A95D2F7CB010C
:101A8000BA0160957095809590950091C202109171
:101A9000C3022091C4023091C502602371238223C6
:101AA00093231F910F910C94260D90919C02809589
:101AB000892380939C02282F277071F4282F082EE9
:101AC000000C330B9217130639F085958595859593
:101AD0000E94320D10929C0208950F931F9341E0D3
:101AE00050E060E070E004C0440F551F661F771F90
:101AF0008A95D2F78091C2029091C302A091C4024C
:101B0000B091C5028A019B01082B192B2A2B3B2B74
:101B1000C901B8011F910F910C94260D6093A10289
:101B20007093A2028093A3029093A4020C94090DD7
:101B300010929F0280911201EEEEF1E0882359F09D
:101B40008091C60287FF07C08EE1DF011D928A9552
:101B5000E9F70C94090D86E0F8CF1F93CF93DF933C
:101B6000CDB7DEB7AA970FB6F894DEBF0FBECDBFD4
:101B70008CE193E02091F100FC012193CF01F3E08F
:101B800084329F07B9F780911D03833009F46FC039
:101B9000B8F4813009F446C0823009F4B0C08091B5
:101BA000E80083FF87C280911C0390911D039A3047
:101BB00008F080C2E92FF0E0E452FE4D0C944C2076
:101BC0008A3009F48BC08B3009F46EC0893039F744
:101BD00080911C03813219F7809120039091210399
:101BE0000297E8F68091E800877F8093E800809173
:101BF000E80082FF37C09091F3008091F2000297D5
:101C000029F48091F1008B7F813021F48091F100E3
:101C10008093F7028091E8008B778093E8000E9420
:101C20006203BDCF80911C03813A09F0B8CF809147
:101C3000E800877F8093E800809120039091210342
:101C4000892B61F460E288EF92E070E00E94140456
:101C50008091E8008B778093E800A1CF60E090E06E
:101C600080E0F3CF80911A038111C1CF98CF80918A
:101C70001C03813A09F093CF8091200390912103B6
:101C8000892B09F08CCF8091E800877F8093E80052
:101C90008091E80080FFFCCF809112018093F100D9
:101CA0008091E8008E77B9CF80911C03813209F0D2
:101CB00076CF8091200390912103892B09F06FCF7B
:101CC0008091E800877F8093E8000E946203809102
:101CD0001E03809312010E94980D61CF80911C0316
:101CE000813209F05CCF8091E800877F8093E80023
:101CF0000E94620380911F038093F60250CF80916F
:101D00001C03813A09F04BCF8091E800877F8093D4
:101D1000E8008091E80080FFFCCF8091F602BECF02
:101D2000803899F0823809F0C5C1809120038F7006
:101D3000873008F0BFC18093E9008091EB0085FBFC
:101D4000882780F91092E90006C0809118039091CD
:101D50001903911182609091E800977F9093E800B9
:101D60008093F1001092F1008091E8008E779EC17F
:101D7000882309F48CC1823009F09CC180911E0334
:101D800081118FC1809120038F702FEF280F263093
:101D900008F090C18093E9002091EB0020FF81C101
:101DA000933031F48091EB0080628093EB0079C135
:101DB0009091EB0090619093EB0021E030E001C046
:101DC000220F8A95EAF72093EA001092EA008091A8
:101DD000EB008860EACF81116DC110911E031F775F
:101DE0008091E3008078812B8093E3008091E8006C
:101DF000877F8093E8000E9462038091E80080FF63
:101E0000FCCF8091E30080688093E30082E01111B1
:101E100083E080931A034EC18058823008F04AC193
:101E200080911E0390911F038C3D23E09207A1F542
:101E300083E08A838AE289834FB7F894DE011396A0
:101E400020E03EE051E2E32FF0E050935700E491B0
:101E500020FF03C0E295EF703F5FEF708E2F90E0A0
:101E6000EA30C0F0C7968D939D932F5F243159F7C8
:101E70004FBF8091E800877F8093E8006AE270E0BE
:101E8000CE0101960E9414048091E8008B77809324
:101E9000E80010C1C096E7CF409120035091210384
:101EA000292F33272330310509F445C078F5213037
:101EB000310509F47BC08BE390E0E0EFF4E02230E1
:101EC000310509F0F7C02091E800277F2093E80052
:101ED00020912203309123038217930708F49C0179
:101EE00040E02115310509F070C041116EC08091AC
:101EF000E80082FDC9CF80911A03882329F285303A
:101F000019F28091E80083FFF2CFBECF2132310574
:101F100009F440C02232310509F0CCC04115510509
:101F200009F44EC04130510509F0C4C08CEB90E07B
:101F3000E4EFF3E0C8CF992781309105D9F00097FD
:101F400071F082309105F1F0039709F0B3C0EDE331
:101F5000F5E0E4918E2F90E0EDE3F5E007C0EDE8C9
:101F6000F5E0E4918E2F90E0EDE8F5E0009709F4BC
:101F7000A1C0A9CFEBE5F5E0E4918E2F90E0EBE571
:101F8000F5E0F4CFE3E4F5E0E4918E2F90E0E3E4B4
:101F9000F5E0ECCF4115510571F04130510509F0E4
:101FA00089C089E090E0EBE1F5E08DCF82E190E03F
:101FB000EBE2F5E088CF89E090E0E2E0F5E083CF66
:101FC00080E490E0E0EBF4E07ECF80911A03882378
:101FD00009F45ACF853009F457CF8091E80083FD8A
:101FE00053CF8091E80082FD82CF8091E80080FF8E
:101FF00078CF9091F3008091F2002115310519F00E
:102000008830910550F041E0089709F040E0809158
:10201000E8008E778093E80064CF44914093F1000C
:102020003196215031090196E8CF803809F042C03D
:102030008091E800877F8093E80080911B03809364
:10204000F10092CE811136C010911E03123090F52E
:102050008091E800877F8093E80010931B030E9423
:102060006203112311F084E005C08091E30087FD35
:10207000FACF81E080931A0342E061EC81E00E9494
:10208000810342E261EC82E00E94810313C08091EF
:102090001E03813079F481E0933009F080E0809371
:1020A00019031092E9008091E800877F8093E8008F
:1020B0000E9462038091E80083FF0AC08091E800DB
:1020C000877F8093E8008091EB0080628093EB0033
:1020D000AA960FB6F894DEBF0FBECDBFDF91CF91A9
:1020E0001F9108951F920F920FB60F9211242F93F4
:1020F0003F934F935F936F937F938F939F93AF9390
:10210000BF93CF93DF93EF93FF93D091E900DF70FC
:102110008091EC00C82FC17080FDC0E81092E900EA
:102120008091F000877F8093F00078940E94AD0D3D
:102130001092E9008091F00088608093F000CD2B30
:10214000CF70C093E900FF91EF91DF91CF91BF91E4
:10215000AF919F918F917F916F915F914F913F913F
:102160002F910F900FBE0F901F9018951F920F92F6
:102170000FB60F9211242F933F934F935F936F935A
:102180007F938F939F93AF93BF93EF93FF93809130
:10219000E10082FF09C08091E20082FF05C08091CA
:1021A000E1008B7F8093E1008091DA0080FF24C002
:1021B0008091D80080FF20C08091DA008E7F8093CC
:1021C000DA008091D90080FF9FC080E189BD82E163
:1021D00089BD09B400FEFDCF81E080931A03809190
:1021E000F502811109C00E94E8020E94B3038091A8
:1021F000E20084608093E2008091E10080FF17C0DC
:102200008091E20080FF13C08091E2008E7F809376
:10221000E2008091E20080618093E2008091D8002A
:1022200080628093D80019BC85E080931A03809166
:10223000E10084FF2DC08091E20084FF29C080E18D
:1022400089BD82E189BD89B5982F917080FFFBCF50
:102250008091D8008F7D8093D8008091E1008F7E9F
:102260008093E1008091E2008F7E8093E200809174
:10227000E20081608093E20080911B03882309F4CF
:1022800049C084E080931A030E94980D0E941207AF
:102290008091E10083FF27C08091E20083FF23C08B
:1022A0008091E100877F8093E10082E080931A03B0
:1022B00010921B038091E1008E7F8093E10080915A
:1022C000E2008E7F8093E2008091E2008061809343
:1022D000E20042E060E080E00E9481038091F00033
:1022E00088608093F000FF91EF91BF91AF919F9133
:1022F0008F917F916F915F914F913F912F910F90AF
:102300000FBE0F901F90189519BC10921A031092CF
:10231000F50272CF8091E30087FD93E090931A035A
:10232000B3CF8823B1F19CEF980F913A38F4682F1E
:102330008CEE91E00E94B1050C94160690E2980F85
:10234000983088F4877021E030E0A90102C0440F82
:10235000551F8A95E2F7CA01809590919F028923C3
:1023600080939F02E9CF9BE5980F933020F490E093
:1023700080E00C94FC0698E5980F973120F490E0EB
:1023800080E00C94E606803F20F00E9475040C94D7
:10239000E20C0895CF93C82F882309F46EC08CEF08
:1023A0008C0F813AB8F580911201882311F1809148
:1023B000C60287FF1EC0EC2FE695E695E695F0E095
:1023C000E451FE4F828190E04C2F477021E030E0D5
:1023D00002C0220F331F4A95E2F782239323892BF1
:1023E00089F06C2F8CEE91E00E94B1050E941606D8
:1023F00009C0EEEEF1E08191C81799F381E0E43F66
:10240000F807C9F76C2F8CEE91E00E94DB05CF91A5
:102410000C94160680E28C0F883068F4C77021E0B7
:1024200030E001C0220FCA95EAF780919F02822B0B
:1024300080939F02ECCFEBE5EC0FE33040F4F0E04B
:10244000E554FE4F808190E0CF910C94FC06E8E5C6
:10245000EC0FE73150F4F0E0EE0FFF1FE254FE4FB7
:1024600080819181CF910C94E606C03F30F08C2F93
:102470000E943A05CF910C94E20CCF910895CF932E
:10248000C82F0E94CA11C93349F42FEF87EE93E099
:10249000215080409040E1F700C000008C2FCF9188
:1024A0000C9491110F931F93CF93DF93C42FD22FCE
:1024B000FC0182818823A1F0409328020E94D60C5F
:1024C0009093140280931302C77081E001C0880FBB
:1024D000CA95EAF7DF91CF911F910F910C94DC061A
:1024E00010912802141335C08091130290911402A8
:1024F0000E94A205883C910560F5C0E2CD0F1D1732
:10250000B9F080E2810F883040F4177081E001C09B
:10251000880F1A95EAF70E94D106C83048F481E086
:102520009D2F977001C0880F9A95EAF70E94DC06EC
:10253000802F0E943F12C83098F4D77081E001C00C
:10254000880FDA95EAF7DF91CF911F910F910C94E4
:10255000D106C77081E001C0880FCA95EAF7F3CFB2
:10256000DF91CF911F910F9108954F925F926F92DB
:102570007F928F929F92AF92BF92CF92DF92EF9213
:10258000FF920F931F93CF93DF9300D000D00F9251
:10259000CDB7DEB76C01FC0183819481892B39F0C2
:1025A0001081F180812F8F218F3F09F013C60F908A
:1025B0000F900F900F900F90DF91CF911F910F917F
:1025C000FF90EF90DF90CF90BF90AF909F908F9053
:1025D0007F906F905F904F9008950E940409082F9C
:1025E000682F89819A810E948406E12FF0E026E01D
:1025F000F29EE00DF11D112434E5039FE00DF11D65
:102600001124EE0FFF1FE455FF4F0591149109327D
:102610008DE51807F1F5F6018281882309F44DC094
:102620008091B00291E0980F9770887F953008F400
:10263000892B8093B0028091B0028770FFEF8F9F4B
:10264000C001112495958795959587959927909325
:1026500089008093880090938B0080938A009093E8
:102660008D0080938C004091B0025091B102609136
:10267000B2027091B3028FE090E00E9478206091E6
:10268000C2027091C3028091C4029091C5020E945F
:102690008909F6018281882309F45AC09801215ED4
:1026A0003C452530310508F053C06FE1600F609361
:1026B000AC028CE090E00E946620F60182818823C3
:1026C00009F499C5109228020230FCE51F0708F4AE
:1026D000A0C506312CE5120738F098012A5F3C4569
:1026E0002730310508F095C50E94180A9093C7025B
:1026F0008093C6020F303CE5130709F4C7C108F008
:1027000041C108309CE5190709F4AAC108F016C1B7
:102710000430FCE51F0709F497C108F0FCC0023043
:102720003CE5130709F488C103301C4509F488C14E
:102730006091C6021091C70284E090E00E9466207A
:10274000612F81E290E00E9466200E94980D93C064
:1027500017FF74C0882309F4B0CF80919F02809343
:10276000270210929F028091AC02813009F441C08F
:102770008823D9F1823009F449C0843009F44DC06E
:102780008FE39CE90197F1F700C000005801E8943D
:10279000B7F8ECE0EE2EF12C95010E2C02C0369528
:1027A00027950A94E2F72F7087E290E029F0822FB4
:1027B00090E02A30B8F54D960E943F1294E0E91A55
:1027C000F108ECEFEE16EFEFFE0631F78091AC0268
:1027D000813071F1882341F1823031F1843061F12F
:1027E0008091270280939F0268CF82EE0E94CA11D7
:1027F000C7CF83E00E94C70688E10E94CA1188E122
:102800000E94911183E00E94BC06BACF82EE0E9422
:10281000CA1187E50E943F12B3CF86EE0E943F1295
:1028200088E1F8CF0697C8CF82EE0E949111D8CFE9
:102830008CE20E943F12D4CF88E2FBCF033FFCE53D
:102840001F0709F450C0C8F5083D3CE5130709F41B
:1028500044C0093D8CE5180709F457C0073D9CE5C5
:10286000190709F02ACF06E221EE41EE67ED7CE57B
:10287000C6010E94521280919C02877009F497CE83
:10288000F6018281882309F492CE82E00F900F90A6
:102890000F900F900F90DF91CF911F910F91FF90AC
:1028A000EF90DF90CF90BF90AF909F908F907F90F0
:1028B0006F905F904F900C94550D053FECE51E070F
:1028C000F1F0B8F0063F2CE5120709F0F6CE07E26A
:1028D00025EE46EE66EF7CE5CBCF07E225EE45EE32
:1028E00068ED7CE5C5CF06E221EE40EE63EF7CE5C6
:1028F000BFCF07E225EE44EE64EF7CE5B9CF06E2F8
:1029000021EE42EE65EF7CE5B3CF08E221E045EE33
:1029100069ED7CE5ADCF8091C602806106309CE513
:10292000190709F447C08091C602886007301C452A
:1029300008F440C08091C60280623CC00B30FCE5C8
:102940001F0709F49BC068F409303CE5130709F43C
:102950008BC00A301C4509F0EBCE8091C6028C601A
:1029600029C08091C6028B7F0D309CE5190711F1BB
:102970008091C6028D7F0E301C45E0F08091C6022A
:10298000877F18C00A3FFCE51F0709F461C060F5A6
:1029900002313CE5130709F481C078F400319CE56D
:1029A000190709F477C08091C6028F7B01311C455D
:1029B00009F0BECE8093C602BBCE0431FCE51F07F2
:1029C00009F47AC008F470C005311C4509F0B0CE96
:1029D0008091C60282FB992790F921E0922790FB13
:1029E00082F990FB83F9E6CF0D3F8CE5180709F4D7
:1029F00049C070F40B3FECE51E0771F18091C702EE
:102A00008E7F0C3F1C4509F093CE8093C70290CE79
:102A10000F3F2CE5120709F44BC060F101151D456D
:102A200009F086CE8091C702982F909591708E7F85
:102A3000892B90FB81F9E9CF8091C6028160BACFE2
:102A40008091C6028260B6CF8091C6028460B2CF08
:102A50008091C7028160D9CF8091C7028260D5CFB3
:102A60008091C6028064A6CF0E94980D8091C60214
:102A70008068A0CF8091C7028360C7CF8091C602D3
:102A80008E7F98CF8091C7028D7FBFCF8091C60285
:102A90008F7E90CF8091C6028F7D8CCF0E94980D43
:102AA0008091C6028F7786CF8091C602837F82CFC6
:102AB0008091C7028C7FA9CF0E94980D9091C60289
:102AC000892F97FB87F9805875CF882349F0011526
:102AD0009CE5190709F44EC00E3D1C4509F487C05A
:102AE000F60100811181882309F484C0C8010E9485
:102AF0000409F82E682FC8010E948406B8018F2DA2
:102B00000E946107082FF92EB82EF601E580E294A5
:102B10007FE0E7221281111110929E0280919C02A7
:102B20008770C1F01123B1F08F2D807F803449F080
:102B300090E2900F983070F0803619F4F6EFBF16DF
:102B400049F082E00E94550D80919C028770AA2472
:102B5000A3948111A12C9F2C92945FE095226BE0AD
:102B6000462E491408F481C0E92DF0E0EA51FE4DEB
:102B70000C944C200E94980DFFEF24E33CE0F150B0
:102B800020403040E1F700C00000F89481E08093DD
:102B9000E00080E28093D8001092C9008FE19EE4AB
:102BA0000197F1F700C000001DBA109268001CBC2C
:102BB00010BE1FBA10927A0010926E0010926F0031
:102BC00010927100109272001092C9001092BC0015
:102BD00014B817B81AB81DB810BA1092BC0015B8BE
:102BE00018B81BB81EB811BA0C94003F44CE0E940E
:102BF0003C0B41CEC8010E945B06F82E7FCF2F2DE3
:102C00002F70E22E8F2D807F19F0E29440EFE422A6
:102C10001123C9F0EE2069F080E2800F883010F0B7
:102C2000B1100BC080919F02E82AE0929F020E949F
:102C30001606802F0E94CA1118C080919E02E82AB1
:102C4000E0929E02F4CF802F0E949111EE2069F055
:102C5000E094005E083010F0B11057C080919F02E0
:102C6000E822E0929F020E941606292D2850330B7D
:102C70002430310510F40E941207112379F08F2DB2
:102C8000807F803619F436EFB31641F080912A0226
:102C9000823009F097C283E080932A02AA20A9F02B
:102CA00080919C0280FD11C0F60112828595859568
:102CB00085950E946D0DC6010E94B51280919C02FF
:102CC0008595859585950E94320D85E0F601DE019A
:102CD000119601900D928A95E1F789819A810E945F
:102CE0005B069A81E981F0E026E0929FE00DF11DFC
:102CF000112434E5839FE00DF11D1124EE0FFF1F19
:102D0000E455FF4F8591949152CC80919E02E82228
:102D1000E0929E02A8CF3F2D3F70832E8F2D807FA3
:102D2000803219F0829430EF8322BB2041F081E0A1
:102D3000B81631F1112381F1EE2049F17ACF112338
:102D400091F09091A002892F8829E11003C00E9480
:102D5000DC068BCFE1E0EE12FACF891709F485CFBC
:102D60008093A00282CFE11006C00E941006882D39
:102D70000E94D1067ACFF1E0EF1609F476CFF5CFB5
:102D8000112339F0442443944E1408F46ECF882D57
:102D9000DECFE1106ACFEBCFEE2049F329E3522ECC
:102DA000B51009C02FEF37EE83E02150304080404E
:102DB000E1F700C00000802F0E94911156CF8F2DA7
:102DC00086958695837069F0813009F04ECF802F0B
:102DD0009F2D9370111102C090E080E00E94E606E2
:102DE00044CF802F9F2D9370111102C090E080E09E
:102DF0000E94FC063ACF802F112329F00E943A0549
:102E00000E94E20C32CF0E947504FACF8F2D83709E
:102E100009F067C0111129CF202F22952695277020
:102E2000220F220F402F4F7050E070E060E0022E22
:102E300004C0440F551F661F771F0A94D2F780E025
:102E400090E0DC0104FF0FC08FE090E0A0E0B0E074
:102E500004C0880F991FAA1FBB1F2A95D2F780951F
:102E60009095A095B0952F2D26952695237022300C
:102E700029F1D8F44090A1025090A2026090A302E0
:102E80007090A402213069F0842B952BA62BB72BD0
:102E9000BC01CD0164217521862197210E948E0DF0
:102EA000E4CE44295529662977292A013B01482A7D
:102EB000592A6A2A7B2AC301B201F0CF842B952BB1
:102EC000A62BB72B4090A1025090A2026090A302C3
:102ED0007090A402BC01CD01642575258625972537
:102EE000DDCF8695112311F08F2D8170882309F491
:102EF000BCCE202F229526952770220F220F402F1F
:102F00004F7050E070E060E0022E04C0440F551F87
:102F1000661F771F0A94D2F780E090E0DC0104FF7F
:102F20000FC08FE090E0A0E0B0E004C0880F991FD0
:102F3000AA1FBB1F2A95D2F780959095A095B095B2
:102F40002F2D269526952370223029F1D8F4409014
:102F5000C2025090C3026090C4027090C50221303A
:102F600069F0842B952BA62BB72BBC01CD016421D6
:102F70007521862197210E94260D77CE4429552957
:102F8000662977292A013B01482A592A6A2A7B2A7D
:102F9000C301B201F0CF842B952BA62BB72B409009
:102FA000C2025090C3026090C4027090C502BC017E
:102FB000CD016425752586259725DDCF2F2D2F7012
:102FC000E22E112329F0822F0E946D0D802FBFCE9B
:102FD000802F0E94D1068E2D0E94320D46CE802F6A
:102FE00032EFB31609F452C03B1578F090EFB916E2
:102FF00029F1E1EFBE1609F441C0112309F46AC0BA
:10300000E11017CE8F2D8F713EC0F3EFBF1609F47C
:1030100042C094EF492EB410F0CF112309F44FC0F1
:103020000F2D0F71802F0E946D0D28E0029FC001AF
:103030001124836080939C02802F25C01123C1F04E
:10304000E11013CE2F2D2F7161E070E080E090E051
:1030500004C0660F771F881F991F2A95D2F74090EA
:10306000C2025090C3026090C4027090C502A1CF0A
:10307000552453945E1408F4F8CDE4CF8F2D8F714E
:10308000112309F4A9CF0E946D0DEFCD8F2D8F7103
:103090001123C9F3A1CF60E070E0CB01112309F443
:1030A0006ACF2F2D2F7161E070E080E090E004C0C6
:1030B000660F771F881F991F2A95D2F75CCF81E092
:1030C0000E94550D31E03E1508F0CFCD82E00E9400
:1030D000550DCBCDEE2059F0893309F06CCE8FEF32
:1030E00097EEE3E081509040E040E1F762CE8F2D13
:1030F0008F7172CFE0E1E00FE73008F03EC0F0E002
:10310000EE50FE4D0C944C20112309F4AECD80916D
:103110002C0291E0892780932C02A7CD10932C02DA
:10312000A4CD81E08127F7CF11119FCD81E0F3CFAE
:1031300011119BCD10922C0298CD112321F082E029
:1031400080932A02F3CF80912A02823021F481E019
:1031500080932A028ACD833009F087CD10922A020B
:10316000E9CF112339F080912B02882381F210924C
:103170002B027BCDEE2059F278CD80912B02EE20F0
:10318000A9F0882341F080912C0291E08927809357
:103190002C0210922B02802F11114CCD0E94911104
:1031A00086E0F60111928A95E9F75FCD882309F44C
:1031B0005CCD11115ACD80912C0291E0892780932A
:1031C0002C02D5CF813009F069CD10922A021092DD
:1031D0002C0264CD85E0DE01119601900D928A9556
:1031E000E1F7F601228189819A812111F6C90E94B5
:1031F0005B06082FFAC906311C4509F071CC809195
:10320000290269E2811165E38CEE91E00E94B1052B
:1032100014C006312CE5120709F057CC80919F02AB
:103220008A7A91E009F490E09093290269E2811191
:1032300065E38CEE91E00E94DB050E9416061BCB35
:103240001F93CF93DF9380913202807FA9F4809106
:103250002F02882389F080916402D091330260911B
:103260002D0270912E02A0913002B0913102C62F32
:10327000C72316E0D81304C0DF91CF911F910895A2
:1032800090E0109711F0CF3F19F401968770F2CFBC
:10329000189F9001199F300D1124F901EC5CFD4F2E
:1032A00041814713F2CF40814613EFCF4281411154
:1032B000ECCF438154814A1B5B0B483C510528F7F6
:1032C000809132028F70806180933202F901E75C55
:1032D000FD4F80818F70806180838DE292E00E943B
:1032E000B512DF91CF911F910C94B206AF92BF92AD
:1032F000CF92DF92EF92FF920F931F93CF93DF93C2
:10330000CDB7DEB761970FB6F894DEBF0FBECDBF65
:103310008C0185E0F801DE011D9601900D928A95E1
:10332000E1F7F80180819181E2802DE2A22E22E076
:10333000B22E60913002709131026115710509F46D
:103340003EC130912D0240912E02232F24232F3F86
:1033500009F435C1C380D480F0902F02F601E61B3A
:10336000F70BFF2009F4FBC020913202522F507F4F
:10337000E83CF10508F0BBC0511178C0FE2C4913A0
:1033800021C038131FC0E1101DC02F702061209391
:103390003202C5010E94B51280913202F801858384
:1033A0008F2D61960FB6F894DEBF0FBECDBFDF91B3
:1033B000CF911F910F91FF90EF90DF90CF90BF9032
:1033C000AF900895CD2829F0282F29232F3F09F009
:1033D00022C120E0F22FF170DF2E20FF3DC02091AE
:1033E00064024091330256E0241315C08D879E87F6
:1033F0008D859E850E944609292F22952F702230A7
:10340000F8F0243020F59F70F9F0F8019581907F55
:10341000D9F4D12C1FC030E0529FF001539FF00D22
:103420001124EC5CFD4F6181961306C06081861308
:1034300003C06281E61210C02F5F3F4F2770D4CFC8
:103440009F7011F0882329F3805E883010F3C80143
:103450000E94B512FD2CA4CFEE2009F4A1CF8091DB
:103460003202816080933202F12C9ACF491312C04C
:10347000381310C0E1100EC0F8012583C8010E9466
:10348000B51286E0F801ADE2B2E001900D928A95A6
:10349000E1F786CF8D879E878D859E850E94500996
:1034A000882309F1EE20F9F080913202803270F029
:1034B00020912D0230912E0238872F831986DB86CA
:1034C000CA868C87CE0107960E94B51286E0F80165
:1034D000ADE2B2E001900D928A95E1F70E942019C9
:1034E000FF24F3945DCFC8010E94B512F9CF5111AA
:1034F0000AC08DE292E00E94B51286E0F5011192B9
:103500008A95E9F7B1CF49130FC038130DC0E11008
:103510000BC0F8012583C8010E94B51286E0F501B1
:1035200011928A95E9F73CCF8D879E878D859E8580
:103530000E9450098823B9F2EE20A9F2809132024C
:10354000803220F220912D0230912E023A8329837D
:103550001B82DD82CC828E83CE010196B5CFE83C02
:10356000F105E0F6FE2CEE2009F4BDCF491316C09C
:10357000381314C08091320280FD83CF982F907F42
:1035800009F47FCFF8018583903F09F477CF982F16
:10359000907F905F8F70892B858370CF8D879E87FA
:1035A0008D859E850E945009811190CF80913202B5
:1035B000816080933202C8010E94B512F1CEEE20E4
:1035C00009F491CF8D879E878D859E850E94500935
:1035D000F82E882309F487CF86E0F801ADE2B2E047
:1035E00001900D928A95E1F780912D0290912E0223
:1035F0000E94460992959F70963051F4863F41F0A3
:1036000080912C0291E0892780932C0290932B02C9
:103610000E942019C5CE21E02E25DCCE1F93CF932A
:10362000DF93CDB7DEB767970FB6F894DEBF0FBE56
:10363000CDBF6D8B7E8B8F8B8E899F89892BE1F01F
:10364000852F84238F3F09F098C05FEF4FEF14C0A0
:1036500030912C02332309F44EC0E42FF0E036E021
:10366000539FE00DF11D1124EE0FFF1FED5EFE4F85
:1036700040815181822B8C931A8A198A4B8B5C8BE7
:1036800085E0FE017396DE011D9601900D928A95EC
:10369000E1F786E0FE013D96DE01179601900D925E
:1036A0008A95E1F7CE0107960E947619811112C022
:1036B00086E0FE013796DE01119601900D928A9503
:1036C000E1F78A859B85892B29F08F81988589234D
:1036D0008F3FC9F516E080916402909133028913FF
:1036E00020C067960FB6F894DEBF0FBECDBFDF9146
:1036F000CF911F91089580958223BDCF96E0929F30
:10370000D001939FB00D1124AC5CBD4FFE013196EA
:1037100001900D929A95E1F7809333020E94B206D0
:10372000D9CF819FC00111248C5C9D4F0E947619D6
:103730008823B9F28091640290E0019687709927FE
:1037400080936402C8CF2091330230E0C901019612
:1037500087709927409164024817190679F60E94EC
:10376000980D109233021092640286E0EDE2F2E0CE
:10377000DF011D928A95E9F7ADCF81E090E0042E3C
:1037800001C0880F0A94EAF7A52FB0E0A75EBD4FED
:103790002C913D8931115CCF322F38235BCF8F9232
:1037A0009F92BF92CF92DF92EF92FF920F931F935F
:1037B000CF93DF938091060190910701892B91F0BF
:1037C00080910D028F5F80930D0281110BC00E94CA
:1037D000040C90E09093070180930601892B11F46B
:1037E0000E94C20A24EB822E22E0922E740110E085
:1037F00000E097E0C92EC00E802F0E94B00B8C2DE8
:103800000E94B00B802F0E947B0CE70199917E01F2
:10381000D12C891729F0FE0131978083DD24D394C0
:103820008C2D0E947B0CF7019681891709F47AC0D0
:10383000868381E08D29182B0E94FC090F5F0730D9
:10384000C1F60E94D60C60910F0270911002909305
:10385000100280930F0220910E0230E0261B370BDE
:10386000820F931F6BEF70E00E942420E82E392F07
:10387000082F80930E02F0901202FF2009F45EC020
:1038800010921202E091AA02F091AB02AF01425FE6
:103890005F4F20E08BEFB82E6BEF70E0A191AB3F54
:1038A00099F0CA2ED12C8E2D932F0A17E8F18C197E
:1038B0009D09092E000CAA0BBB0B4E97A105B10563
:1038C000C8F1DF011197BC924E175F0739F72093BB
:1038D0001202111102C0211133C010921102A091E5
:1038E000AA02B091AB0290911202EBECF2E080E000
:1038F0003191E40129914E01321751F03C913B3F47
:10390000D9F40C93AF0141505109EA01288391E0A9
:103910001196D2E0E93DFD0759F79093120280938A
:10392000110212C080E086CFDB01AC19BD098A0FFD
:103930009B1FBFCF2F2DC8CF81E0EACF1111CDCF74
:10394000809111028111C9CF812FDF91CF911F91F9
:103950000F91FF90EF90DF90CF90BF909F908F904E
:103960000895CDB7DEB760970FB6F894DEBF0FBEEF
:10397000CDBF84B7877F84BF0FB6F894A895809198
:103980006000886180936000109260000FBE80E844
:1039900090E00FB6F89480936100909361000FBEA1
:1039A00085B7806885BF85B7806885BF0E94E802BB
:1039B0000E94B3038091E20084608093E2007894D7
:1039C00080911A038823A1F01091E9001F70909153
:1039D000EC00892F817090FD80E8182B1092E9008F
:1039E0008091E80083FD0E94AD0D1F701093E900E7
:1039F00082E084BD93E095BD9AEF97BD80936E0001
:103A00000E94040C90E090930701809306010E94AD
:103A1000FC090E940B0AE4EBF2E082EC92E0ABECD2
:103A2000B2E011921D928E179F07D9F78EE090E0B9
:103A30000E949A208093AA029093AB02FC010E96FA
:103A40002BEF21938E179F07E1F790E080E00E9413
:103A500060208F3E9E4F11F00E943C0B8CE090E066
:103A60000E94522090E0B0E0A0E08093AC029093DE
:103A7000AD02A093AE02B093AF0289EA80938000BA
:103A800089E08093810024982C983F988AB18F7C9C
:103A90008AB96E98479A8BB180638BB9769A8FE01A
:103AA00090E00E945A206093B0027093B10280931C
:103AB000B2029093B30267704FEF649FB00111247C
:103AC00075956795759567957727709389006093CD
:103AD000880070938B0060938A0070938D006093D0
:103AE0008C000E94C20A90E080E00E9460208F3E1D
:103AF0009E4F11F00E943C0B82E090E00E94522009
:103B00008093E6020E94180A9093C7028093C6022F
:103B100083E090E00E945220682F70E090E080E007
:103B20000E948E0D6091C2027091C3028091C40206
:103B30009091C5020E94890988E091E09093C902A2
:103B40008093C802BB24B394AA24AA9489EDE82EDA
:103B500082E0F82E90E1992E22E1822E38E1C32EE8
:103B6000D12C40E4742E80911A03853009F403C1EE
:103B70000E94CF1BE7EEF2E0ABECB2E010E000E019
:103B8000302F8D912191281709F440C190E06624CF
:103B900063942827422F462109F433C19F83388735
:103BA000862191E009F490E099870E94D60C81600B
:103BB000782F9B878A874F81588569858B850E94DE
:103BC0000E1BF801E951FD4F80816826608286E076
:103BD000EFEDF2E0DE01119601900D928A95E1F78A
:103BE0006090E1025090E2021091E3020091E40241
:103BF0001092E1021092E2021092E3021092E402AB
:103C0000862D852909F448C08091DD029091DE025D
:103C10000E94A2059C019091DC02992309F430C115
:103C200025313105C8F19F3F19F09F5F9093DC0269
:103C3000662059F00E9418059FEF16140CF491E0CD
:103C4000899F802D11248093E102552059F00E9414
:103C500018059FEF15140CF491E0899F802D112415
:103C60008093E2023091E1023323B1F02091E2022D
:103C7000222391F045EB3403C0011124992309F468
:103C8000DBC09093E10245EB240390011124332320
:103C900009F4D5C03093E202812F802B09F448C08B
:103CA0008091DA029091DB020E94A2059C01909122
:103CB000D902992309F4E0C025313105C8F19F3FAD
:103CC00019F09F5F9093D902112359F00E94F804D4
:103CD0009FEF11160CF491E0899F802D11248093A1
:103CE000E302002359F00E94F8049FEF10160CF431
:103CF00091E0899F802D11248093E4023091E302AA
:103D00003323B1F02091E402222391F045EB3403F8
:103D1000C0011124992309F495C09093E30245EB67
:103D2000240390011124332309F48FC03093E4025B
:103D30008091E1029091E202892B9091E302892B1C
:103D40009091E402892B11F00E94E20C86E0FE01C2
:103D50003196AFEDB2E001900D928A95E1F70E94A5
:103D600012079091E502891709F4FDCE0E9412070F
:103D70008093E502F8CE80911A03843009F1109205
:103D8000CA020FB6F894A895C09260000FBE709258
:103D9000600083B7817F846083BF83B7816083BF06
:103DA0007894889583B78E7F83BF0FB6F894A895D3
:103DB00080916000886180936000109260000FBE67
:103DC00080911903882309F4CECE0E94040C90E060
:103DD00090930701809306010E94FC090E940B0A40
:103DE000EBECF2E01192EE16FF06E1F70E94CF1B1A
:103DF000EBECF2E0819181112BC0EE16FF06D1F7BA
:103E0000B2CE9F5F660C963009F0C4CE0F5F1F4F95
:103E10000E30110509F0B4CEAC86AD861E860E9428
:103E2000D60C8160782F988B8F874C855D856E8549
:103E300088890E940E1BCBCEB092E10224CFB092B3
:103E4000E2022ACFB092E3026ACFB092E40270CFCE
:103E500099BC89BC09B400FEFDCF8091D8008F7D4C
:103E60008093D8008091E00082608093E000809190
:103E7000E00081FDFCCF77CE232B09F022CF58CF75
:103E8000232B09F0D2CE08CF1F921FB61F92112408
:103E90008F939F93AF93BF938091CA02811113C0F8
:103EA0008091A5029091A602A091A702B091A802CC
:103EB0004196A11DB11D8093A5029093A602A093E7
:103EC000A702B093A802BF91AF919F918F911F90CD
:103ED0001FBE1F9018951092B9008CE08093B80017
:103EE0000895EF92FF920F931F93CF93DF93182FB4
:103EF000EB011092BC0084EA8093BC000E94D60CB7
:103F00007C018091BC0087FF27C08091B900887F29
:103F1000883029F08091B900887F8031D9F51093DD
:103F2000BB0084E88093BC000E94D60C8C01809179
:103F3000BC0087FF24C02091B900287F90E080E07A
:103F40002831B1F081E090E0203411F490E080E07D
:103F50009195819591090CC0CF3FDC0791F20E94A9
:103F6000D60C8E199F098C179D0758F28EEF9FEF84
:103F7000DF91CF911F910F91FF90EF900895CF3F68
:103F8000DC07A9F20E94D60C801B910B8C179D07B1
:103F900070F2ECCF8FEF9FEFEBCF0F931F93CF9388
:103FA000DF93EB018093BB0084E88093BC000E9408
:103FB000D60C8C018091BC0087FF11C02091B90004
:103FC000287F81E090E0283211F490E080E0919524
:103FD00081959109DF91CF911F910F910895CF3F66
:103FE000DC0741F30E94D60C801B910B8C179D07B8
:103FF00008F38EEF9FEFEECF0F931F93CF93DF93D6
:10400000EC0184E88093BC000E94D60C8C01809166
:10401000BC0087FF08C08091BB0090E0DF91CF918A
:104020001F910F910895CF3FDC0789F30E94D60CB2
:10403000801B910B8C179D0750F38EEF9FEFEECFF7
:1040400084E98093BC000895AA1BBB1B51E107C003
:10405000AA1FBB1FA617B70710F0A61BB70B881F18
:10406000991F5A95A9F780959095BC01CD010895A7
:1040700097FB072E16F4009407D077FD09D00E9415
:10408000242007FC05D03EF4909581959F4F08951C
:10409000709561957F4F0895EE0FFF1F0590F49185
:1040A000E02D0994F999FECF92BD81BDF89A992728
:1040B00080B50895A6E1B0E044E050E00C948C2077
:1040C000A8E1B0E042E050E00C948C20262FF99952
:1040D000FECF92BD81BDF89A019700B4021639F067
:1040E0001FBA20BD0FB6F894FA9AF99A0FBE089538
:1040F0000396272F0E9467200E946620252F0E948A
:104100006720242F0C9467200196272F0E94672098
:104110000C946620DC01CB01FC01F999FECF06C0AE
:10412000F2BDE1BDF89A319600B40D924150504075
:10413000B8F708950F931F93CF93DF9382309105C3
:1041400010F482E090E0E0912603F091270330E044
:1041500020E0B0E0A0E0309799F42115310509F492
:1041600047C0281B390B24303105C0F58A819B815B
:104170006115710571F1FB0193838283FE0111C00A
:10418000408151810281138148175907F8F048177F
:10419000590799F4109761F012960C9312971396A1
:1041A0001C933296CF01DF91CF911F910F9108950B
:1041B0000093260310932703F4CF2115310519F03E
:1041C0004217530718F49A01BD01EF01DF01F8010E
:1041D000C2CF9093270380932603D0CFFE01E20F36
:1041E000F31F819391932250310939832883DACFC9
:1041F0002091240330912503232B41F420910201C7
:104200003091030130932503209324032091000172
:10421000309101012115310541F42DB73EB7409190
:10422000040150910501241B350B4091240350914A
:1042300025034217530708F0B5CF241B350B281769
:10424000390708F4AFCFBC016E5F7F4F26173707E1
:1042500008F4A8CF640F751F70932503609324039F
:10426000FA01819391939ECFCF93DF930097E9F06A
:10427000FC01329713821282C0912603D09127034A
:10428000DE0130E020E02097A1F420813181820F0F
:10429000931F20912403309125032817390709F033
:1042A00067C0F0932503E0932403DF91CF91089535
:1042B000DA01AE17BF0708F040C012964D915C912D
:1042C00013979D014115510599F7D9011396FC9358
:1042D000EE9312974D915D91A40FB51FEA17FB075E
:1042E00079F4808191810296840F951FD9011196EE
:1042F0009C938E938281938113969C938E931297B5
:10430000B0E0A0E08A819B810097B9F5FE01819120
:104310009191E80FF91F80912403909125038E1746
:104320009F0719F6109761F5109227031092260344
:10433000D0932503C0932403B8CFB383A2834081D5
:104340005181840F951FA817B90771F44E5F5F4F15
:104350008D919C911197480F591F5183408312965C
:104360008D919C91938382832115310509F0ADCF06
:10437000F0932703E093260398CFDE01EC01C2CF30
:1043800013961C921E921297D3CFF894FFCF5F0919
:104390005F09680968096A096809680968095F09A5
:1043A0005F096F09680968096F09E309EF09F409F2
:1043B000ED09F209F909F709900EB80E5A10B80E76
:1043C0005A10EB0E0C0F5A1015102210FF15FF1586
:1043D0008B168B16DF16FB167A1835160617DE17A6
:1043E000EF17EF178418B1188E18911898189418B1
:0243F0009D1816
:1043F20000002803200020007204820A610A5D0A7C
:10440200590A01000D010D020D030D040D050D00E9
:104412000C010C020C030C040C050C000B010B022A
:104422000B030B040B050B000A010A020A030A0420
:104432000A050A000901090209030904090509001C
:10444200080108020803080408050800070107021A
:104452000703070407050700060106020603060410
:10446200060506000501050205030504050505000C
:10447200040104020403040404050400030103020A
:104482000303030403050300020102020203020400
:1044920002050200010101020103010401050100FC
:1044A2000001000200030004000500818283E20093
:1044B200E900EA00B500B600B700CD008301CC00E8
:1044C2008A0192019401210223022402250226027A
:0C44D20027022A02B300B4006F00700043
:00000001FF
